:020000040000FA
:100000002AC000C0C061DB3029F0D33018F0B695AB
:10001000B399B068DA9521F4DBE0AB2FC160CF7EF5
:1000200018950CE083FDC29A83FFC298991F881F20
:10003000C498C49A0A95B1F7C09800000000000067
:100040000000C09A0895A590B590AA2019F0AA16AC
:10005000D1F7AB2D08950FEF002E102E202E302E4D
:10006000402E502E602E702E802E902EDBE0CC275E
:10007000BB270FEF08BB05E107BB02E005BF00E4AB
:100080000BBF10E1812F8A959FEFCBDF1A95D1F737
:100090007894C0FFFECFCE7FA03F11F4C260F9CFAD
:1000A000A03E11F4C460F5CFC2FF06C0A13121F417
:1000B000C860C1FDC77F30C0C3FF03C0E8E7F1E0FF
:1000C000C2DFC2FF03C0EBE8F1E0BDDFA33809F4F3
:1000D000A2E0A7FD21C0E8E9F1E0AA24EA0FFA1D99
:1000E00094919F3FC9F0092F9295892F8F700F70BF
:1000F000039599270894991F0A95E9F70FEFC1FF17
:1001000090278A95E82FFF270081C1FF0923C1FDB1
:10011000092B902F908385DFC97FBBCFC4FDFECF15
:10012000F894C19808E71FE11A95F1F70A95D9F7F5
:10013000C398C19A1CD0082D122F10FDC39A10FF2E
:10014000C398169514D00A95B9F7022F0295022785
:10015000102F169516950127102F012700FDC39A21
:1001600000FFC39804D0C39A02D001D00895B19B78
:10017000FECFB199FECF08951A5E445F4B602161B6
:1001800024621C63226431651B6700751372176B50
:10019000187419715C591200FFFFFFFF4514A66324
:1001A000FFFFFFFFFF4151FFFF26541721948416E4
:1001B000131556A6A49686FFFF5557A7978587FF68
:1001C000FF2453A5939583FFFF252343A37363FF68
:1001D000FFFF2745756567FFFF924777766466FFE7
:1001E000FF918146527422FFFFFF22FFA2A1FFFF71
:1001F00042544462618212363511343233317237DF
:10020000FFFFFFFFFFFFFFFFFFFFFFFFFFFF71FF8C
:10021000FFFFFFFFFFFFFFFFFFFFFFFFFFFFFFFFEE
:10022000FFFFFFFFFFFFFFFFFFFFFFFFFFFFFFFFDE
:10023000FFFFFFFFFFFFFFFFFFFFFFFFFFFFFFFFCE
:10024000FFFFFFFFFFFFFFFFFFFFFFFFFFFFFFFFBE
:10025000FFFFFFFFFFFFFFFFFFFFFFFFFFFFFFFFAE
:10026000FFFFFFFFFFFFFFFFFFFFFFFFFFFFFFFF9E
:10027000FFFFFFFFFFFFFFFFFFFFFFFFFFFFFFFF8E
:10028000FFFFFFFFFFFFFFFFFFFFFFFFFFFFFFFF7E
:10029000FFFFFFFFFFFFFFFFFFFFFFFFFFFFFFFF6E
:1002A000FFFFFFFFFFFFFFFFFFFFFFFFFFFFFFFF5E
:1002B000FFFFFFFFFFFFFFFFFFFFFFFFFFFFFFFF4E
:1002C000FFFFFFFFFFFFFFFFFFFFFFFFFFFFFFFF3E
:1002D000FFFFFFFFFFFFFFFFFFFFFFFFFFFFFFFF2E
:1002E000FFFFFFFFFFFFFFFFFFFFFFFFFFFFFFFF1E
:1002F000FFFFFFFFFFFFFFFFFFFFFFFFFFFFFFFF0E
:10030000FFFFFFFFFFFFFFFFFFFFFFFFFFFFFFFFFD
:10031000FFFFFFFFFFFFFFFFFFFFFFFFFFFFFFFFED
:10032000FFFFFFFFFFFFFFFFFFFFFFFFFFFFFFFFDD
:10033000FFFFFFFFFFFFFFFFFFFFFFFFFFFFFFFFCD
:10034000FFFFFFFFFFFFFFFFFFFFFFFFFFFFFFFFBD
:10035000FFFFFFFFFFFFFFFFFFFFFFFFFFFFFFFFAD
:10036000FFFFFFFFFFFFFFFFFFFFFFFFFFFFFFFF9D
:10037000FFFFFFFFFFFFFFFFFFFFFFFFFFFFFFFF8D
:10038000FFFFFFFFFFFFFFFFFFFFFFFFFFFFFFFF7D
:10039000FFFFFFFFFFFFFFFFFFFFFFFFFFFFFFFF6D
:1003A000FFFFFFFFFFFFFFFFFFFFFFFFFFFFFFFF5D
:1003B000FFFFFFFFFFFFFFFFFFFFFFFFFFFFFFFF4D
:1003C000FFFFFFFFFFFFFFFFFFFFFFFFFFFFFFFF3D
:1003D000FFFFFFFFFFFFFFFFFFFFFFFFFFFFFFFF2D
:1003E000FFFFFFFFFFFFFFFFFFFFFFFFFFFFFFFF1D
:1003F000FFFFFFFFFFFFFFFFFFFFFFFFFFFFFFFF0D
:00000001FF
